{
  "_format": "hh-sol-artifact-1",
  "contractName": "IdentityRegistry",
  "sourceName": "contracts/IdentityRegistry.sol",
  "abi": [
    {
      "inputs": [],
      "stateMutability": "nonpayable",
      "type": "constructor"
    },
    {
      "anonymous": false,
      "inputs": [
        {
          "indexed": true,
          "internalType": "address",
          "name": "user",
          "type": "address"
        },
        {
          "indexed": false,
          "internalType": "bytes32",
          "name": "credentialHash",
          "type": "bytes32"
        },
        {
          "indexed": true,
          "internalType": "address",
          "name": "issuer",
          "type": "address"
        }
      ],
      "name": "CredentialIssued",
      "type": "event"
    },
    {
      "anonymous": false,
      "inputs": [
        {
          "indexed": true,
          "internalType": "address",
          "name": "user",
          "type": "address"
        },
        {
          "indexed": false,
          "internalType": "uint256",
          "name": "index",
          "type": "uint256"
        }
      ],
      "name": "CredentialRevoked",
      "type": "event"
    },
    {
      "anonymous": false,
      "inputs": [
        {
          "indexed": true,
          "internalType": "address",
          "name": "user",
          "type": "address"
        },
        {
          "indexed": false,
          "internalType": "uint256",
          "name": "index",
          "type": "uint256"
        },
        {
          "indexed": false,
          "internalType": "bool",
          "name": "isValid",
          "type": "bool"
        },
        {
          "indexed": true,
          "internalType": "address",
          "name": "verifier",
          "type": "address"
        }
      ],
      "name": "CredentialVerified",
      "type": "event"
    },
    {
      "anonymous": false,
      "inputs": [
        {
          "indexed": true,
          "internalType": "address",
          "name": "user",
          "type": "address"
        },
        {
          "indexed": false,
          "internalType": "string",
          "name": "didDocument",
          "type": "string"
        },
        {
          "indexed": false,
          "internalType": "string",
          "name": "serviceEndpoint",
          "type": "string"
        }
      ],
      "name": "DIDUpdated",
      "type": "event"
    },
    {
      "anonymous": false,
      "inputs": [
        {
          "indexed": true,
          "internalType": "address",
          "name": "user",
          "type": "address"
        },
        {
          "indexed": false,
          "internalType": "string",
          "name": "didDocument",
          "type": "string"
        },
        {
          "indexed": false,
          "internalType": "string",
          "name": "serviceEndpoint",
          "type": "string"
        }
      ],
      "name": "IdentityRegistered",
      "type": "event"
    },
    {
      "anonymous": false,
      "inputs": [
        {
          "indexed": true,
          "internalType": "address",
          "name": "issuer",
          "type": "address"
        },
        {
          "indexed": false,
          "internalType": "bool",
          "name": "authorized",
          "type": "bool"
        }
      ],
      "name": "IssuerUpdated",
      "type": "event"
    },
    {
      "inputs": [
        {
          "internalType": "address",
          "name": "user",
          "type": "address"
        },
        {
          "internalType": "uint256",
          "name": "index",
          "type": "uint256"
        }
      ],
      "name": "checkCredential",
      "outputs": [
        {
          "internalType": "bool",
          "name": "",
          "type": "bool"
        }
      ],
      "stateMutability": "view",
      "type": "function"
    },
    {
      "inputs": [
        {
          "internalType": "address",
          "name": "",
          "type": "address"
        },
        {
          "internalType": "uint256",
          "name": "",
          "type": "uint256"
        }
      ],
      "name": "credentials",
      "outputs": [
        {
          "internalType": "bytes32",
          "name": "credentialHash",
          "type": "bytes32"
        },
        {
          "internalType": "address",
          "name": "issuer",
          "type": "address"
        },
        {
          "internalType": "bool",
          "name": "isValid",
          "type": "bool"
        }
      ],
      "stateMutability": "view",
      "type": "function"
    },
    {
      "inputs": [
        {
          "internalType": "address",
          "name": "user",
          "type": "address"
        },
        {
          "internalType": "uint256",
          "name": "index",
          "type": "uint256"
        }
      ],
      "name": "getCredential",
      "outputs": [
        {
          "internalType": "bytes32",
          "name": "",
          "type": "bytes32"
        },
        {
          "internalType": "address",
          "name": "",
          "type": "address"
        },
        {
          "internalType": "bool",
          "name": "",
          "type": "bool"
        }
      ],
      "stateMutability": "view",
      "type": "function"
    },
    {
      "inputs": [
        {
          "internalType": "address",
          "name": "user",
          "type": "address"
        }
      ],
      "name": "getCredentialCount",
      "outputs": [
        {
          "internalType": "uint256",
          "name": "",
          "type": "uint256"
        }
      ],
      "stateMutability": "view",
      "type": "function"
    },
    {
      "inputs": [
        {
          "internalType": "address",
          "name": "user",
          "type": "address"
        }
      ],
      "name": "getDIDInfo",
      "outputs": [
        {
          "internalType": "string",
          "name": "",
          "type": "string"
        },
        {
          "internalType": "string",
          "name": "",
          "type": "string"
        },
        {
          "internalType": "string",
          "name": "",
          "type": "string"
        },
        {
          "internalType": "uint256",
          "name": "",
          "type": "uint256"
        }
      ],
      "stateMutability": "view",
      "type": "function"
    },
    {
      "inputs": [
        {
          "internalType": "address",
          "name": "",
          "type": "address"
        }
      ],
      "name": "identities",
      "outputs": [
        {
          "internalType": "address",
          "name": "owner",
          "type": "address"
        },
        {
          "internalType": "bool",
          "name": "exists",
          "type": "bool"
        },
        {
          "internalType": "string",
          "name": "didDocument",
          "type": "string"
        },
        {
          "internalType": "string",
          "name": "publicKey",
          "type": "string"
        },
        {
          "internalType": "string",
          "name": "serviceEndpoint",
          "type": "string"
        },
        {
          "internalType": "uint256",
          "name": "registeredAt",
          "type": "uint256"
        }
      ],
      "stateMutability": "view",
      "type": "function"
    },
    {
      "inputs": [
        {
          "internalType": "address",
          "name": "user",
          "type": "address"
        },
        {
          "internalType": "bytes32",
          "name": "credentialHash",
          "type": "bytes32"
        }
      ],
      "name": "issueCredential",
      "outputs": [],
      "stateMutability": "nonpayable",
      "type": "function"
    },
    {
      "inputs": [],
      "name": "owner",
      "outputs": [
        {
          "internalType": "address",
          "name": "",
          "type": "address"
        }
      ],
      "stateMutability": "view",
      "type": "function"
    },
    {
      "inputs": [
        {
          "internalType": "string",
          "name": "didDocument",
          "type": "string"
        },
        {
          "internalType": "string",
          "name": "publicKey",
          "type": "string"
        },
        {
          "internalType": "string",
          "name": "serviceEndpoint",
          "type": "string"
        }
      ],
      "name": "registerIdentity",
      "outputs": [],
      "stateMutability": "nonpayable",
      "type": "function"
    },
    {
      "inputs": [
        {
          "internalType": "address",
          "name": "user",
          "type": "address"
        },
        {
          "internalType": "uint256",
          "name": "index",
          "type": "uint256"
        }
      ],
      "name": "revokeCredential",
      "outputs": [],
      "stateMutability": "nonpayable",
      "type": "function"
    },
    {
      "inputs": [
        {
          "internalType": "address",
          "name": "issuer",
          "type": "address"
        },
        {
          "internalType": "bool",
          "name": "authorized",
          "type": "bool"
        }
      ],
      "name": "setTrustedIssuer",
      "outputs": [],
      "stateMutability": "nonpayable",
      "type": "function"
    },
    {
      "inputs": [
        {
          "internalType": "address",
          "name": "",
          "type": "address"
        }
      ],
      "name": "trustedIssuers",
      "outputs": [
        {
          "internalType": "bool",
          "name": "",
          "type": "bool"
        }
      ],
      "stateMutability": "view",
      "type": "function"
    },
    {
      "inputs": [
        {
          "internalType": "string",
          "name": "didDocument",
          "type": "string"
        },
        {
          "internalType": "string",
          "name": "serviceEndpoint",
          "type": "string"
        }
      ],
      "name": "updateDID",
      "outputs": [],
      "stateMutability": "nonpayable",
      "type": "function"
    },
    {
      "inputs": [
        {
          "internalType": "address",
          "name": "user",
          "type": "address"
        },
        {
          "internalType": "uint256",
          "name": "index",
          "type": "uint256"
        }
      ],
      "name": "verifyCredential",
      "outputs": [
        {
          "internalType": "bool",
          "name": "",
          "type": "bool"
        }
      ],
      "stateMutability": "nonpayable",
      "type": "function"
    }
  ],
  "bytecode": "0x608060405234801561001057600080fd5b5033600360006101000a81548173ffffffffffffffffffffffffffffffffffffffff021916908373ffffffffffffffffffffffffffffffffffffffff160217905550612582806100616000396000f3fe608060405234801561001057600080fd5b50600436106100ea5760003560e01c80638b0e62881161008c578063b42a02b511610066578063b42a02b51461029c578063b4e5a8de146102b8578063bdc95b32146102d4578063f653b81e146102f0576100ea565b80638b0e6288146102325780638da5cb5b1461024e57806392c54daf1461026c576100ea565b806355ac786c116100c857806355ac786c146101815780635d759cf6146101b45780637106b2fc146101e45780637c4f4e0b14610200576100ea565b806303cb278a146100ef5780631330b61b146101215780632d40599514610151575b600080fd5b61010960048036038101906101049190611c40565b610325565b6040516101189392919061217e565b60405180910390f35b61013b60048036038101906101369190611c40565b610399565b6040516101489190612148565b60405180910390f35b61016b60048036038101906101669190611b9f565b61052a565b604051610178919061238a565b60405180910390f35b61019b60048036038101906101969190611b9f565b610576565b6040516101ab94939291906121f0565b60405180910390f35b6101ce60048036038101906101c99190611c40565b610812565b6040516101db9190612148565b60405180910390f35b6101fe60048036038101906101f99190611c40565b610936565b005b61021a60048036038101906102159190611c40565b610d24565b6040516102299392919061217e565b60405180910390f35b61024c60048036038101906102479190611bc8565b610e80565b005b610256611029565b60405161026391906120b7565b60405180910390f35b61028660048036038101906102819190611b9f565b61104f565b6040516102939190612148565b60405180910390f35b6102b660048036038101906102b19190611c7c565b61106f565b005b6102d260048036038101906102cd9190611c04565b6111f9565b005b6102ee60048036038101906102e99190611cf1565b6114d1565b005b61030a60048036038101906103059190611b9f565b6117d7565b60405161031c969594939291906120d2565b60405180910390f35b6001602052816000526040600020818154811061034157600080fd5b9060005260206000209060020201600091509150508060000154908060010160009054906101000a900473ffffffffffffffffffffffffffffffffffffffff16908060010160149054906101000a900460ff16905083565b6000600160008473ffffffffffffffffffffffffffffffffffffffff1673ffffffffffffffffffffffffffffffffffffffff16815260200190815260200160002080549050821061041f576040517f08c379a0000000000000000000000000000000000000000000000000000000008152600401610416906122ca565b60405180910390fd5b6000600160008573ffffffffffffffffffffffffffffffffffffffff1673ffffffffffffffffffffffffffffffffffffffff1681526020019081526020016000208381548110610498577f4e487b7100000000000000000000000000000000000000000000000000000000600052603260045260246000fd5b906000526020600020906002020160010160149054906101000a900460ff1690503373ffffffffffffffffffffffffffffffffffffffff168473ffffffffffffffffffffffffffffffffffffffff167ffe4e380014cdb8059ff7154b6894ef93d578aeb8fbe826061c95c8fb942b007f85846040516105189291906123a5565b60405180910390a38091505092915050565b6000600160008373ffffffffffffffffffffffffffffffffffffffff1673ffffffffffffffffffffffffffffffffffffffff168152602001908152602001600020805490509050919050565b606080606060008060008673ffffffffffffffffffffffffffffffffffffffff1673ffffffffffffffffffffffffffffffffffffffff16815260200190815260200160002060000160149054906101000a900460ff1661060b576040517f08c379a00000000000000000000000000000000000000000000000000000000081526004016106029061226a565b60405180910390fd5b60008060008773ffffffffffffffffffffffffffffffffffffffff1673ffffffffffffffffffffffffffffffffffffffff1681526020019081526020016000209050806001018160020182600301836004015483805461066a9061247e565b80601f01602080910402602001604051908101604052809291908181526020018280546106969061247e565b80156106e35780601f106106b8576101008083540402835291602001916106e3565b820191906000526020600020905b8154815290600101906020018083116106c657829003601f168201915b505050505093508280546106f69061247e565b80601f01602080910402602001604051908101604052809291908181526020018280546107229061247e565b801561076f5780601f106107445761010080835404028352916020019161076f565b820191906000526020600020905b81548152906001019060200180831161075257829003601f168201915b505050505092508180546107829061247e565b80601f01602080910402602001604051908101604052809291908181526020018280546107ae9061247e565b80156107fb5780601f106107d0576101008083540402835291602001916107fb565b820191906000526020600020905b8154815290600101906020018083116107de57829003601f168201915b505050505091509450945094509450509193509193565b6000600160008473ffffffffffffffffffffffffffffffffffffffff1673ffffffffffffffffffffffffffffffffffffffff168152602001908152602001600020805490508210610898576040517f08c379a000000000000000000000000000000000000000000000000000000000815260040161088f906122ca565b60405180910390fd5b600160008473ffffffffffffffffffffffffffffffffffffffff1673ffffffffffffffffffffffffffffffffffffffff168152602001908152602001600020828154811061090f577f4e487b7100000000000000000000000000000000000000000000000000000000600052603260045260246000fd5b906000526020600020906002020160010160149054906101000a900460ff16905092915050565b600260003373ffffffffffffffffffffffffffffffffffffffff1673ffffffffffffffffffffffffffffffffffffffff16815260200190815260200160002060009054906101000a900460ff166109c2576040517f08c379a00000000000000000000000000000000000000000000000000000000081526004016109b99061230a565b60405180910390fd5b600160008373ffffffffffffffffffffffffffffffffffffffff1673ffffffffffffffffffffffffffffffffffffffff168152602001908152602001600020805490508110610a46576040517f08c379a0000000000000000000000000000000000000000000000000000000008152600401610a3d906122ca565b60405180910390fd5b3373ffffffffffffffffffffffffffffffffffffffff16600160008473ffffffffffffffffffffffffffffffffffffffff1673ffffffffffffffffffffffffffffffffffffffff1681526020019081526020016000208281548110610ad4577f4e487b7100000000000000000000000000000000000000000000000000000000600052603260045260246000fd5b906000526020600020906002020160010160009054906101000a900473ffffffffffffffffffffffffffffffffffffffff1673ffffffffffffffffffffffffffffffffffffffff1614610b5c576040517f08c379a0000000000000000000000000000000000000000000000000000000008152600401610b539061232a565b60405180910390fd5b600160008373ffffffffffffffffffffffffffffffffffffffff1673ffffffffffffffffffffffffffffffffffffffff1681526020019081526020016000208181548110610bd3577f4e487b7100000000000000000000000000000000000000000000000000000000600052603260045260246000fd5b906000526020600020906002020160010160149054906101000a900460ff16610c31576040517f08c379a0000000000000000000000000000000000000000000000000000000008152600401610c289061236a565b60405180910390fd5b6000600160008473ffffffffffffffffffffffffffffffffffffffff1673ffffffffffffffffffffffffffffffffffffffff1681526020019081526020016000208281548110610caa577f4e487b7100000000000000000000000000000000000000000000000000000000600052603260045260246000fd5b906000526020600020906002020160010160146101000a81548160ff0219169083151502179055508173ffffffffffffffffffffffffffffffffffffffff167ff2fcadf579f414e0330984b542cd6af76f79cc0213bfd8d53adf88364f1d262182604051610d18919061238a565b60405180910390a25050565b6000806000600160008673ffffffffffffffffffffffffffffffffffffffff1673ffffffffffffffffffffffffffffffffffffffff168152602001908152602001600020805490508410610dad576040517f08c379a0000000000000000000000000000000000000000000000000000000008152600401610da4906122ca565b60405180910390fd5b6000600160008773ffffffffffffffffffffffffffffffffffffffff1673ffffffffffffffffffffffffffffffffffffffff1681526020019081526020016000208581548110610e26577f4e487b7100000000000000000000000000000000000000000000000000000000600052603260045260246000fd5b9060005260206000209060020201905080600001548160010160009054906101000a900473ffffffffffffffffffffffffffffffffffffffff168260010160149054906101000a900460ff16935093509350509250925092565b600360009054906101000a900473ffffffffffffffffffffffffffffffffffffffff1673ffffffffffffffffffffffffffffffffffffffff163373ffffffffffffffffffffffffffffffffffffffff1614610f10576040517f08c379a0000000000000000000000000000000000000000000000000000000008152600401610f079061234a565b60405180910390fd5b600073ffffffffffffffffffffffffffffffffffffffff168273ffffffffffffffffffffffffffffffffffffffff161415610f80576040517f08c379a0000000000000000000000000000000000000000000000000000000008152600401610f779061224a565b60405180910390fd5b80600260008473ffffffffffffffffffffffffffffffffffffffff1673ffffffffffffffffffffffffffffffffffffffff16815260200190815260200160002060006101000a81548160ff0219169083151502179055508173ffffffffffffffffffffffffffffffffffffffff167f2da8853a4b9cb460e0d55b3ebaf4233e43c285958527a4dc0b67aa4b71b91af88260405161101d9190612148565b60405180910390a25050565b600360009054906101000a900473ffffffffffffffffffffffffffffffffffffffff1681565b60026020528060005260406000206000915054906101000a900460ff1681565b6000803373ffffffffffffffffffffffffffffffffffffffff1673ffffffffffffffffffffffffffffffffffffffff16815260200190815260200160002060000160149054906101000a900460ff166110fd576040517f08c379a00000000000000000000000000000000000000000000000000000000081526004016110f49061226a565b60405180910390fd5b83836000803373ffffffffffffffffffffffffffffffffffffffff1673ffffffffffffffffffffffffffffffffffffffff168152602001908152602001600020600101919061114d9291906119d8565b5081816000803373ffffffffffffffffffffffffffffffffffffffff1673ffffffffffffffffffffffffffffffffffffffff168152602001908152602001600020600301919061119e9291906119d8565b503373ffffffffffffffffffffffffffffffffffffffff167f8a349d0aaf30faae66d032977cc9409a8d7676460eabf8c0947986b5d8a48d8c858585856040516111eb94939291906121b5565b60405180910390a250505050565b600260003373ffffffffffffffffffffffffffffffffffffffff1673ffffffffffffffffffffffffffffffffffffffff16815260200190815260200160002060009054906101000a900460ff16611285576040517f08c379a000000000000000000000000000000000000000000000000000000000815260040161127c9061230a565b60405180910390fd5b6000808373ffffffffffffffffffffffffffffffffffffffff1673ffffffffffffffffffffffffffffffffffffffff16815260200190815260200160002060000160149054906101000a900460ff16611313576040517f08c379a000000000000000000000000000000000000000000000000000000000815260040161130a906122aa565b60405180910390fd5b6000801b811415611359576040517f08c379a00000000000000000000000000000000000000000000000000000000081526004016113509061228a565b60405180910390fd5b600160008373ffffffffffffffffffffffffffffffffffffffff1673ffffffffffffffffffffffffffffffffffffffff16815260200190815260200160002060405180606001604052808381526020013373ffffffffffffffffffffffffffffffffffffffff1681526020016001151581525090806001815401808255809150506001900390600052602060002090600202016000909190919091506000820151816000015560208201518160010160006101000a81548173ffffffffffffffffffffffffffffffffffffffff021916908373ffffffffffffffffffffffffffffffffffffffff16021790555060408201518160010160146101000a81548160ff02191690831515021790555050503373ffffffffffffffffffffffffffffffffffffffff168273ffffffffffffffffffffffffffffffffffffffff167f4363709704d3f6b8d0a65f1f3e02c640ae24b87d9115262e46ae7f3a21d471db836040516114c59190612163565b60405180910390a35050565b6000803373ffffffffffffffffffffffffffffffffffffffff1673ffffffffffffffffffffffffffffffffffffffff16815260200190815260200160002060000160149054906101000a900460ff1615611560576040517f08c379a0000000000000000000000000000000000000000000000000000000008152600401611557906122ea565b60405180910390fd5b6040518060c001604052803373ffffffffffffffffffffffffffffffffffffffff16815260200160011515815260200187878080601f016020809104026020016040519081016040528093929190818152602001838380828437600081840152601f19601f82011690508083019250505050505050815260200185858080601f016020809104026020016040519081016040528093929190818152602001838380828437600081840152601f19601f82011690508083019250505050505050815260200183838080601f016020809104026020016040519081016040528093929190818152602001838380828437600081840152601f19601f820116905080830192505050505050508152602001428152506000803373ffffffffffffffffffffffffffffffffffffffff1673ffffffffffffffffffffffffffffffffffffffff16815260200190815260200160002060008201518160000160006101000a81548173ffffffffffffffffffffffffffffffffffffffff021916908373ffffffffffffffffffffffffffffffffffffffff16021790555060208201518160000160146101000a81548160ff0219169083151502179055506040820151816001019080519060200190611733929190611a5e565b506060820151816002019080519060200190611750929190611a5e565b50608082015181600301908051906020019061176d929190611a5e565b5060a082015181600401559050503373ffffffffffffffffffffffffffffffffffffffff167fdc8c7948efd57970d2239c1bd917b1aacccb1af7b9d31499bb5ed1f80a792527878785856040516117c794939291906121b5565b60405180910390a2505050505050565b60006020528060005260406000206000915090508060000160009054906101000a900473ffffffffffffffffffffffffffffffffffffffff16908060000160149054906101000a900460ff16908060010180546118339061247e565b80601f016020809104026020016040519081016040528092919081815260200182805461185f9061247e565b80156118ac5780601f10611881576101008083540402835291602001916118ac565b820191906000526020600020905b81548152906001019060200180831161188f57829003601f168201915b5050505050908060020180546118c19061247e565b80601f01602080910402602001604051908101604052809291908181526020018280546118ed9061247e565b801561193a5780601f1061190f5761010080835404028352916020019161193a565b820191906000526020600020905b81548152906001019060200180831161191d57829003601f168201915b50505050509080600301805461194f9061247e565b80601f016020809104026020016040519081016040528092919081815260200182805461197b9061247e565b80156119c85780601f1061199d576101008083540402835291602001916119c8565b820191906000526020600020905b8154815290600101906020018083116119ab57829003601f168201915b5050505050908060040154905086565b8280546119e49061247e565b90600052602060002090601f016020900481019282611a065760008555611a4d565b82601f10611a1f57803560ff1916838001178555611a4d565b82800160010185558215611a4d579182015b82811115611a4c578235825591602001919060010190611a31565b5b509050611a5a9190611ae4565b5090565b828054611a6a9061247e565b90600052602060002090601f016020900481019282611a8c5760008555611ad3565b82601f10611aa557805160ff1916838001178555611ad3565b82800160010185558215611ad3579182015b82811115611ad2578251825591602001919060010190611ab7565b5b509050611ae09190611ae4565b5090565b5b80821115611afd576000816000905550600101611ae5565b5090565b600081359050611b10816124f0565b92915050565b600081359050611b2581612507565b92915050565b600081359050611b3a8161251e565b92915050565b60008083601f840112611b5257600080fd5b8235905067ffffffffffffffff811115611b6b57600080fd5b602083019150836001820283011115611b8357600080fd5b9250929050565b600081359050611b9981612535565b92915050565b600060208284031215611bb157600080fd5b6000611bbf84828501611b01565b91505092915050565b60008060408385031215611bdb57600080fd5b6000611be985828601611b01565b9250506020611bfa85828601611b16565b9150509250929050565b60008060408385031215611c1757600080fd5b6000611c2585828601611b01565b9250506020611c3685828601611b2b565b9150509250929050565b60008060408385031215611c5357600080fd5b6000611c6185828601611b01565b9250506020611c7285828601611b8a565b9150509250929050565b60008060008060408587031215611c9257600080fd5b600085013567ffffffffffffffff811115611cac57600080fd5b611cb887828801611b40565b9450945050602085013567ffffffffffffffff811115611cd757600080fd5b611ce387828801611b40565b925092505092959194509250565b60008060008060008060608789031215611d0a57600080fd5b600087013567ffffffffffffffff811115611d2457600080fd5b611d3089828a01611b40565b9650965050602087013567ffffffffffffffff811115611d4f57600080fd5b611d5b89828a01611b40565b9450945050604087013567ffffffffffffffff811115611d7a57600080fd5b611d8689828a01611b40565b92509250509295509295509295565b611d9e816123ea565b82525050565b611dad816123fc565b82525050565b611dbc81612408565b82525050565b6000611dce83856123d9565b9350611ddb83858461243c565b611de4836124df565b840190509392505050565b6000611dfa826123ce565b611e0481856123d9565b9350611e1481856020860161244b565b611e1d816124df565b840191505092915050565b6000611e35600f836123d9565b91507f496e76616c6964206164647265737300000000000000000000000000000000006000830152602082019050919050565b6000611e75600e836123d9565b91507f4e6f7420726567697374657265640000000000000000000000000000000000006000830152602082019050919050565b6000611eb5600c836123d9565b91507f496e76616c6964206861736800000000000000000000000000000000000000006000830152602082019050919050565b6000611ef56013836123d9565b91507f55736572206e6f742072656769737465726564000000000000000000000000006000830152602082019050919050565b6000611f35600d836123d9565b91507f496e76616c696420696e646578000000000000000000000000000000000000006000830152602082019050919050565b6000611f756012836123d9565b91507f416c7265616479207265676973746572656400000000000000000000000000006000830152602082019050919050565b6000611fb56012836123d9565b91507f4e6f7420747275737465642069737375657200000000000000000000000000006000830152602082019050919050565b6000611ff56013836123d9565b91507f4e6f74206f726967696e616c20697373756572000000000000000000000000006000830152602082019050919050565b60006120356009836123d9565b91507f4e6f74206f776e657200000000000000000000000000000000000000000000006000830152602082019050919050565b6000612075600f836123d9565b91507f416c7265616479207265766f6b656400000000000000000000000000000000006000830152602082019050919050565b6120b181612432565b82525050565b60006020820190506120cc6000830184611d95565b92915050565b600060c0820190506120e76000830189611d95565b6120f46020830188611da4565b81810360408301526121068187611def565b9050818103606083015261211a8186611def565b9050818103608083015261212e8185611def565b905061213d60a08301846120a8565b979650505050505050565b600060208201905061215d6000830184611da4565b92915050565b60006020820190506121786000830184611db3565b92915050565b60006060820190506121936000830186611db3565b6121a06020830185611d95565b6121ad6040830184611da4565b949350505050565b600060408201905081810360008301526121d0818688611dc2565b905081810360208301526121e5818486611dc2565b905095945050505050565b6000608082019050818103600083015261220a8187611def565b9050818103602083015261221e8186611def565b905081810360408301526122328185611def565b905061224160608301846120a8565b95945050505050565b6000602082019050818103600083015261226381611e28565b9050919050565b6000602082019050818103600083015261228381611e68565b9050919050565b600060208201905081810360008301526122a381611ea8565b9050919050565b600060208201905081810360008301526122c381611ee8565b9050919050565b600060208201905081810360008301526122e381611f28565b9050919050565b6000602082019050818103600083015261230381611f68565b9050919050565b6000602082019050818103600083015261232381611fa8565b9050919050565b6000602082019050818103600083015261234381611fe8565b9050919050565b6000602082019050818103600083015261236381612028565b9050919050565b6000602082019050818103600083015261238381612068565b9050919050565b600060208201905061239f60008301846120a8565b92915050565b60006040820190506123ba60008301856120a8565b6123c76020830184611da4565b9392505050565b600081519050919050565b600082825260208201905092915050565b60006123f582612412565b9050919050565b60008115159050919050565b6000819050919050565b600073ffffffffffffffffffffffffffffffffffffffff82169050919050565b6000819050919050565b82818337600083830152505050565b60005b8381101561246957808201518184015260208101905061244e565b83811115612478576000848401525b50505050565b6000600282049050600182168061249657607f821691505b602082108114156124aa576124a96124b0565b5b50919050565b7f4e487b7100000000000000000000000000000000000000000000000000000000600052602260045260246000fd5b6000601f19601f8301169050919050565b6124f9816123ea565b811461250457600080fd5b50565b612510816123fc565b811461251b57600080fd5b50565b61252781612408565b811461253257600080fd5b50565b61253e81612432565b811461254957600080fd5b5056fea264697066735822122046dedd3aac1b362527982bc8813ad20fc5fce0b718fb6e779c091e2d2d9b676864736f6c63430008000033",
  "linkReferences": {},
  "deployedLinkReferences": {}
}